:100000000030002011040000A5290000B1290000E3
:10001000B1290000B1290000B1290000B129000078
:10002000B1290000B1290000B1290000B129000068
:10003000B1290000B1290000B1290000CB5B00000C
:10004000CB5B0000CB5B0000CB5B0000CB5B000018
:10005000CB5B0000CB5B0000CB5B0000CB5B000008
:10006000CB5B0000CB5B0000CB5B0000CB5B0000F8
:10007000CB5B0000CB5B0000CB5B0000CB5B0000E8
:10008000CB5B0000CB5B0000CB5B0000CB5B0000D8
:10009000CB5B0000CB5B0000CB5B0000CB5B0000C8
:1000A000CB5B0000CB5B0000CB5B0000CB5B0000B8
:1000B000CB5B0000CB5B0000CB5B0000CB5B0000A8
:10040000FFFFFFFFFFFFFFFFFFFFFFFF7EFFFFFF7D
:1004100009480A4908600A490860EFF3088080F338
:100420000988EFF314800221084380F31488BFF396
:100430006F8F00F07FFDC046FFFFFFFF80E100E00F
:1004400080E200E002B4714649084900095C4900B5
:100450008E4402BC7047C046002934D001230022DC
:1004600010B488422CD301242407A14204D2814233
:1004700002D209011B01F8E7E400A14204D2814243
:1004800002D249005B00F8E7884201D3401A1A43C0
:100490004C08A04202D3001B5C0822438C08A042F7
:1004A00002D3001B9C082243CC08A04202D3001BAD
:1004B000DC082243002803D01B0901D00909E3E727
:1004C000101C10BC7047002801D00020C04307B4A6
:1004D000024802A14018029003BDC046D9000000A6
:1004E0000029F0D003B5FFF7B9FF0EBC4243891ACB
:1004F0001847C046002941D010B4041C4C40A44603
:1005000001230022002900D54942002800D540429D
:1005100088422CD301242407A14204D2814202D272
:1005200009011B01F8E7E400A14204D2814202D292
:1005300049005B00F8E7884201D3401A1A434C088F
:10054000A04202D3001B5C0822438C08A04202D3C5
:10055000001B9C082243CC08A04202D3001BDC08ED
:100560002243002803D01B0901D00909E3E7101C2E
:100570006446002C00D5404210BC7047002806D0CD
:1005800003DB0020C043400801E08020000607B4E0
:10059000024802A14018029003BDC04619000000A5
:1005A0000029EBD003B5FFF7A7FF0EBC4243891A21
:1005B0001847C0467047C04680B500AFBD4680BDF5
:1005C00080B584B000AF78607B68FB60FB68012277
:1005D0001A70BD4604B080BD80B584B000AF7860AD
:1005E0007B68FB60FB6801225A70BD4604B080BD89
:1005F00080B582B000AF7860BD4602B080BDC04615
:1006000080B582B000AF7860BD4602B080BDC04604
:1006100080B582B000AF7860BD4602B080BDC046F4
:1006200080B584B000AF78607B68FB60FB68012216
:100630001A70BD4604B080BD80B584B000AF78604C
:100640007B68FB60FB6801225A70BD4604B080BD28
:1006500080B582B000AF7860BD4602B080BDC046B4
:1006600080B500AF02F066FA01F020FBFEE7C0465D
:1006700080B586B000AFF860B960111C1A1CFB1D74
:100680001970BB1D1A70BB6800221A7000237B61B1
:10069000FA68FB1D101C191C0122002302F0E6FC65
:1006A00002E07B6901337B61BB681B78DBB2002B06
:1006B00003D17A691F4B9A42F3D9BB681B78DBB22E
:1006C000002B01D1002330E0BB6800225A70BB1D13
:1006D0001B789BB2F9683A6A081C111C1A1C01238A
:1006E00002F03EFD00237B6102E07B6901337B6108
:1006F000BB685B78DBB2002B03D17A690D4B9A4261
:10070000F3D9FA683B1C1333101C191C02F0A8FD26
:100710003B1C13331B78012BF3D1BB685B78DBB236
:10072000002B01D1002300E00123181CBD4606B0B8
:1007300080BDC0469F860100F0B591B000AF7862E1
:100740003962111C1A1C3B1C1F3319703B1C1E33D1
:100750001A706B461E1C3B1C3B3310221A703B1C4C
:100760003B331B78013B7B633B1C3B331B783B617A
:1007700000237B613A69530F7A69D200FA60FA6804
:100780001A43FA603B69DB003B1C3B331B781C1CA3
:1007900000231D1C630FEA007A607A681A437A60AE
:1007A000E3003B1C3B331B780733DB08DB006A4666
:1007B000D21A95466B4600333B630023FB633B6BC9
:1007C0003A1C1F3212781A703B6B591C3B1C1E33AB
:1007D0001B78BA6D081C111C1A1C03F085FC3B6ABF
:1007E00000221A703A6B3B1C1E331B789BB20133FC
:1007F0009BB2796A081C111C1A1C012302F036FCFA
:1008000002E0FB6B0133FB633B6A1B78DBB2002B1E
:1008100003D1FA6B0D4B9A42F3D97A6A3B1C2F3302
:10082000101C191C02F01CFD3B1C2F331B78012BE4
:10083000F3D13B6A1B78DBB2002B01D1002300E02F
:100840000123B546181CBD4611B0F0BD9F860100BE
:1008500080B586B000AFF860B960111C1A1CFB1D92
:100860001970BB1D1A70BB6800221A7000237B61CF
:10087000FA68FB1D101C191C0122002302F0FCFE6B
:1008800002E07B6901337B61BB681B78DBB2002B24
:1008900003D17A691F4B9A42F3D9BB681B78DBB24C
:1008A000002B01D1002330E0BB6800225A70BB1D31
:1008B0001B789BB2F9683A6A081C111C1A1C0123A8
:1008C00002F086FF00237B6102E07B6901337B61DC
:1008D000BB685B78DBB2002B03D17A690D4B9A427F
:1008E000F3D9FA683B1C1333101C191C03F01CF8D5
:1008F0003B1C13331B78012BF3D1BB685B78DBB255
:10090000002B01D1002300E00123181CBD4606B0D6
:1009100080BDC0469F860100F0B591B000AF7862FF
:100920003962111C1A1C3B1C1F3319703B1C1E33EF
:100930001A706B461E1C3B1C3B3310221A703B1C6A
:100940003B331B78013B7B633B1C3B331B783B6198
:1009500000237B613A69530F7A69D200FA60FA6822
:100960001A43FA603B69DB003B1C3B331B781C1CC1
:1009700000231D1C630FEA007A607A681A437A60CC
:10098000E3003B1C3B331B780733DB08DB006A4684
:10099000D21A95466B4600333B630023FB633B6BE7
:1009A0003A1C1F3212781A703B6B591C3B1C1E33C9
:1009B0001B78BA6D081C111C1A1C03F095FB3B6ACE
:1009C00000221A703A6B3B1C1E331B789BB201331A
:1009D0009BB2796A081C111C1A1C012302F04CFE00
:1009E00002E0FB6B0133FB633B6A1B78DBB2002B3D
:1009F00003D1FA6B0D4B9A42F3D97A6A3B1C2F3321
:100A0000101C191C02F090FF3B1C2F331B78012B8C
:100A1000F3D13B6A1B78DBB2002B01D1002300E04D
:100A20000123B546181CBD4611B0F0BD9F860100DC
:100A300090B589B002AF786000237B613B1C123314
:100A400000221A803A1C08328D4B111C1A1C0323F9
:100A5000081C111C1A1C03F047FB8A4B181C03F0DE
:100A6000F9FA894B181C03F0F5FA884B181C03F0AF
:100A7000F1FA0A2003F0DAFA01F006FB031CFB602E
:100A8000834AFB68101C191C03F0BCFA814B181C2C
:100A900002F058FA021C804B1A607F4B1A687D4B9B
:100AA000391C0B310091101C191C2A220123FFF75D
:100AB000DFFD031C5A425341DAB23B1C12331A8049
:100AC0003B1C12331B88002B16D13B1C0B3303221B
:100AD0001A70714B1A686F4B391C0B310091101C46
:100AE000191C2A220123FFF727FE031C5A425341F7
:100AF000DAB23B1C12331A803B1C12331B88002BCA
:100B000024D13B1C0B3300221A70634B1A68614BD3
:100B1000391C0B310091101C191C2A220123FFF7EC
:100B2000A7FD031C5A425341DAB23B1C12331A8010
:100B30003B1C12331B88002B08D13B1C0B331B784A
:100B4000032B03D03B1C123301221A803B1C1233AF
:100B50001B88002B04D1514B181C03F07BFA03E0D7
:100B60004F4B181C03F076FA3B1C12331B88002BEA
:100B700003D14C4B181C03F06DFA002002F09AFFD1
:100B8000021C494B1A60002002F0E8FE021C474B91
:100B90001A607B6901337B613F4B1A683D4B391CFE
:100BA00008310091101C191C01220323FFF760FD7E
:100BB000031C5A425341DAB23B1C12331A803B1CCD
:100BC00012331B88002B57D1374B1B68181C02F0BF
:100BD000FDFF364B1B68181C02F01CFF324B1C68D3
:100BE0003B1C08331B785BB2181C0A21FFF782FC00
:100BF000031CDBB25BB2D9175B184B40FA229200A0
:100C0000111C99400B1C201C00211A1C02F0F6FF3D
:100C1000254B1C683B1C08335B785BB2181C0A210F
:100C2000FFF768FC031CDBB25BB2DA179B1853407A
:100C3000FA229200111C99400B1C201C01211A1C45
:100C400002F0DCFF194B1C683B1C08339B785BB23D
:100C5000181C0A21FFF74EFC031CDBB25BB2DA174B
:100C60009B185340FA229200111C99400B1C201C27
:100C700000211A1C02F0E6FE642001F0DDFC88E78A
:100C800068560000445500005C550000985500006F
:100C9000E0550000ACF1FF1FDCF0FF1FF85500002D
:100CA0002856000030560000E8F0FF1FECF0FF1F50
:100CB000B0B588B002AF78603B1C0C3300221A60DC
:100CC0003B1C143300221A803B1C123300221A8072
:100CD0003B1C173300221A707E4B181C02F032FCAA
:100CE000021C7D4B1A607D4B181C01F097FF021C03
:100CF0007B4B1A60784B1A68764B391C0C3100918B
:100D0000101C191C01220223FFF7A2FD031C5A42EA
:100D10005341DAB23B1C14331A803B1C14331B883A
:100D2000002B0DD13B1C0C331B781A1C3B1C0C33C5
:100D30005B786C49081C111C1A1C03F063F903E072
:100D4000694B181C03F086F93B1C0C3302221A7005
:100D5000614B1A685F4B391C0C310091101C191C37
:100D600001220223FFF7D8FD031C5A425341DAB295
:100D70003B1C14331A803B1C14331B88002B0DD1F1
:100D80003B1C0C331B781A1C3B1C0C335B785749FB
:100D9000081C111C1A1C03F035F903E0544B181CF5
:100DA00003F058F94E4B1A68524B101C191C01F0F5
:100DB00087FF3B1C17331B78002B0CD13B1C0C33DB
:100DC00040221A703B1C0C33E3225A703B1C173331
:100DD00001221A700BE03B1C0C3300221A703B1CE2
:100DE0000C33E3225A703B1C173300221A703A4B23
:100DF0001A68384B391C0C310091101C191C012247
:100E00000223FFF789FD031C5A425341DAB23B1C0F
:100E100014331A803B1C14331B88002B07D03B1C57
:100E200017331B78344A101C191C03F0EBF801200F
:100E300001F002FC284B1A68264B391C0C3100913A
:100E4000101C191C00220223FFF702FD031C5A424A
:100E50005341DAB23B1C14331A803B1C14331B88F9
:100E6000002B31D13B1C103300221A803B1C0C3369
:100E70001B781B029AB23B1C0C335B7813439AB26B
:100E80003B1C10331A803B1C12333A1C1032128860
:100E90001A803B1C12333A1C12320021525E12118E
:100EA0001A803B1C173319783B1C0C331B781A1C17
:100EB0003B1C0C335B78381C12300025445F0F4814
:100EC000009403F09FF874E70D4B181C03F0C2F870
:100ED0006FE7C046B4F1FF1FE0F0FF1FB0F1FF1F46
:100EE000E4F0FF1F6C560000AC560000D85600001E
:100EF0001C570000B2090000485700006857000066
:100F0000B457000080B582B000AF7860FEE7C046FD
:100F100080B500AF054A064BD31A054A101C0021C4
:100F20001A1C03F0EAF8BD4680BDC046AC0600209E
:100F3000DCF0FF1F04F0D8FA01F040FDFFF7E8FFF6
:100F400004F0AEFA04F048FA04F0DCFA044B002096
:100F5000191CFFF785FB031C181C03F0A9F8C046F9
:100F6000F0F0FF1F80B582B000AF054B1B687B60BF
:100F70007B68DB6B181C04F0A3FEBD4602B080BD8D
:100F800000F0FF1F80B584B000AF78600B4B1B688A
:100F9000FB60FA688D239B007968D150E0231A0624
:100FA000074BD358BB60E0231A06054B7968D15034
:100FB000BB68181CBD4604B080BDC04600F0FF1FD2
:100FC00008ED000080B500AFE0231A06024BD358AD
:100FD000181CBD4680BDC04608ED0000B0B582B00B
:100FE00000AF031C0A1C7B603B601C1C032A00D85A
:100FF00087E0181C0121014008D07B607B6800213C
:1010000019707B6801337B607B68013A181C0221F0
:10101000014008D03B603B68002119803B680233E7
:101020003B603B68023A1C1C950930E000232360BA
:101030000434002323600434002323600434002399
:101040002360043400232360043400232360043429
:10105000002323600434002323600434002323602E
:101060000434002323600434002323600434002369
:1010700023600434002323600434002323600434F9
:10108000002323600434002323600434013D002D39
:10109000CCD191080F230B400F2B31D89900224B54
:1010A000CB181B689F460023236004340023236071
:1010B0000434002323600434002323600434002319
:1010C00023600434002323600434002323600434A9
:1010D00000232360043400232360043400232360AE
:1010E00004340023236004340023236004340023E9
:1010F0002360043400232360043400232360043479
:10110000231C0221114007D03B603B68002119805D
:101110003B6802333B603B6801210A4001D000225A
:101120001A70BD4602B0B0BDE858000080B584B06A
:1011300000AF786039607A683B68101C191C00F0B9
:101140001BFA031CFB60FB68002B01D1FFF70AFFB1
:10115000FB68181CBD4604B080BDC046F0B54746CC
:1011600080B484B000AF7860164B1B68FB60FA68EF
:10117000A2235B00D6587B689B68B3421DD37B6873
:101180009B68181C311CFFF767F9031C98467B68A5
:101190001A685B68444600210D1C101C191C0019BC
:1011A0006941031C0C1C7A68136054607B689A6860
:1011B00043467343D21A7B689A60BD4604B004BCB0
:1011C0009046F0BD00F0FF1F80B586B000AF244B05
:1011D0001B68FB60FB685133FF33BB60BB68DB6897
:1011E0007B617B69072B05D907237B61BB680722DD
:1011F000DA6007E07B69002B04D101237B61BB68C7
:101200000122DA607B699BB2DB019AB2FF231340B3
:101210009AB2FB68DA8200233B6108E0114B3A691D
:10122000C03292000021D1503B6901333B613B69E0
:10123000072BF3D90C4B7B6000233B6109E03B6932
:101240009B007A68D318012252421A603B6901332D
:101250003B613B69002BF2D0BD4606B080BDC04665
:1012600000F0FF1F00E100E080E100E080B584B005
:1012700000AF294B1B687B607B6800221A627A688A
:10128000C423D35802333B60244BFB603B68BB60F4
:101290002FE0FB68FA681A60FB68FA685A60BB685E
:1012A0009AB2FB68DA817A68AE235B00D258BB68D9
:1012B000D318002B10D17A68AE235B00D3589AB2B2
:1012C000BB689BB2D3189BB2DB019AB2FF231340D9
:1012D0009AB2FB689A8102E0FB6800229A817B68DF
:1012E0001A6AFB689A607B68FA681A62FB681033B6
:1012F000FB60BB685A1E9341DBB2BA68013ABA6020
:10130000002BC6D17B681A6A7B685A620023181CBE
:10131000BD4604B080BDC04600F0FF1FD8FDFF1FD2
:1013200080B588B000AFF860B9607A603B60012397
:10133000FB617B68013BBA68D3180F229343BB6102
:10134000BB69583B7B61FB68BA691A61BB680F33A4
:101350000F2293431A1CFB689A61FB687A695A61F1
:101360007B69181C5821FFF739FE0C4A7B695A63C8
:101370007B69FA6A1A623B685B6801221A437B69DF
:101380009A637B6980225204DA637B69FA6ADA64C1
:10139000FB69181CBD4608B080BDC046A1210000F5
:1013A00080B582B000AF7860BD4602B080BDC04657
:1013B00080B584B000AF7860014B1B68FB60FEE72E
:1013C00000F0FF1F80B586B000AF7860134B1B683C
:1013D0007B617B69DB693B6100F022F83B699B68BC
:1013E0000B2B16D03B690B229A607A683B69DA6254
:1013F0003B69181C412101F091F83B695B68FB6077
:101400003B691B68BB60FB68BA681A60BB68FA6816
:101410005A6000F01BF8BD4606B080BD00F0FF1F0B
:1014200080B582B000AF084B1B687B607B68DB69CE
:101430009B6C002B00D172B67B68DB699A6C013221
:101440009A64BD4602B080BD00F0FF1F80B582B037
:1014500000AF0D4B1B687B607B68DB699B6C002BCE
:101460000ED07B68DB699A6C013A9A649B6C002B06
:1014700006D17B681B8B002B01D062B600E062B600
:10148000BD4602B080BDC04600F0FF1F80B584B0ED
:1014900000AF7860164B1B68FB60FB689B6B002BF2
:1014A00004D1182000F058FE00231CE0FB68DA6A23
:1014B0007B689A4204D8FB681A6B7B689A4204D214
:1014C000142000F049FE00230DE0FB68DB6A7A6817
:1014D000D31A7B60FB68996B7A68131C5B009B18BE
:1014E0009B00CB189B68181CBD4604B080BDC0464D
:1014F00000F0FF1F80B588B000AFF860B9607A6077
:101500001C4B1B68FB61FB699B6B002B04D11820F3
:1015100000F022FE002328E0FB69DA6AFB689A42A9
:1015200004D8FB691A6BFB689A4204D2142000F0BD
:1015300013FE002319E0FB69996BFB69DB6AFA680B
:10154000D21A131C5B009B189B00CB18BB61FFF7E2
:1015500067FFBB691B687B61BB69BA681A60BB69BE
:101560007A689A60FFF772FF7B69181CBD4608B065
:1015700080BDC04600F0FF1F80B586B000AF786028
:1015800039603A687B689A4201D20C2330E01A4BEA
:101590001B68FB60FA68B8231849D150FB68184AE9
:1015A0009A623A687B68D31A01333B61154B7B61C1
:1015B000FB687A699A63FB687A68DA62FB683A6862
:1015C0001A630BE07B690E4A1A607A687B699A603D
:1015D0007B6801337B607B690C337B613B695A1EFE
:1015E0009341DBB23A69013A3A61002BEAD1002318
:1015F000181CBD4606B080BD00F0FF1FCB5B00008D
:10160000C5130000A8FEFF1F80B588B000AFF860CA
:10161000B9607A603B602C4B1B68BB61FB68BA68A1
:101620009A61FB680833FA6808321A60FB6808336D
:10163000FA6808325A60FB68083300221A81FB6896
:10164000083300225A81FFF7EBFE7B68002B31D173
:10165000BA69E823D358FB610BE0FA69FB689A4248
:1016600004D1FFF7F3FE8223DB0029E0FB691B684E
:10167000FB61BB691A1CE832FB699A42EDD1BB6978
:10168000E8335B681B687B61FB687A691A60BB6939
:10169000E8335B68FA681A60BB69E8335A68FB682C
:1016A0005A607B69FA685A60BB69E8331A8901326B
:1016B00092B21A81FB68054A5A61FFF7C7FE002300
:1016C000181CBD4608B080BD00F0FF1F6D73776C1D
:1016D00080B582B000AF786039607A683B68101CD2
:1016E000191C00220023FFF78FFF031C181CBD46A6
:1016F00002B080BD80B588B000AF78604F4B1B68EA
:10170000FB617B685A694E4B9A4201D01F2390E0DF
:10171000FB69DB699B6C002B00D172B6FB69DB694E
:101720009A6C01329A647B689B69002B67DB7B684B
:1017300008331B89002B62D07B6808331B68BB61B0
:10174000BB695B687B61BB691B683B617B693A690C
:101750001A603B697A695A607B6808331A89013AD2
:1017600092B21A81BB69303BBB61BB699A68802326
:101770005B0013401ED0BB695B68FB60BB691B68E4
:10178000BB60FB68BA681A60BB68FA685A60FB699C
:101790002933FF331A89013A92B21A81BB699A68D8
:1017A000284B1A40BB699A60BB699B6803221A43A5
:1017B000BB699A60BB690022DA62BB69DA69FB69BE
:1017C0005B6A9A4203D9BB69DA69FB695A62BB69F1
:1017D00002229A60BB69DB695A68BB695A60BB69BF
:1017E0005B681A68BB691A60BB695B68BA691A6092
:1017F000BB69DB69BA695A6004F06AF904E07B6886
:101800009B695A1C7B689A61FB69DB699B6C002BA6
:101810000ED0FB69DB699A6C013A9A649B6C002BD1
:1018200006D1FB691B8B002B01D062B600E062B6CB
:101830000023181CBD4608B080BDC04600F0FF1F45
:101840006D73776CFFFEFFFF80B588B000AF7860E6
:101850003F4B1B68FB61FB691B8B002B01D00D23E9
:1018600072E07B685A693B4B9A4201D01F236BE0C0
:10187000FB69DB699B6C002B00D172B6FB69DB69ED
:101880009A6C01329A647B689B69002B39DCFB6996
:10189000DB69BB61BB69304A9A607B6808331A1CFC
:1018A000BB69DA62BB695B687B61BB691B683B61D2
:1018B0007B693A691A603B697A695A607B680833C8
:1018C0005B681B68FB60BB693033FA681A607B6831
:1018D00008335B68BA6930321A60BB6930337A68A2
:1018E000083252685A60BB691A1C3032FB685A6071
:1018F0007B6808331A89013292B21A8104F0F4F835
:1019000004E07B689B695A1E7B689A617B685A6910
:10191000104B9A4203D0FFF799FD1F2314E0FB6997
:10192000DB699B6C002B0ED0FB69DB699A6C013A7A
:101930009A649B6C002B06D1FB691B8B002B01D09A
:1019400062B600E062B60023181CBD4608B080BD38
:1019500000F0FF1F6D73776C2B04000080B584B01E
:1019600000AF7860044B1B68FB607B689AB2FB6831
:101970001A81BD4604B080BD00F0FF1F80B586B05F
:1019800000AF614B1B68BB60BB68604A1A82BB68D2
:101990004C225A82BB6808221A60BB6801225A6036
:1019A000BB680222DA81BB680F225A81BB680F2212
:1019B0009A81FFF707FB011CBA688D239B00D15069
:1019C000BA68B8235B00D358002B02D1012000F085
:1019D000EBF9FFF7F9FBBB6848337B60BB687A68BB
:1019E000DA61BB68DA8ABB685A83BB68DA8A7B68CB
:1019F0009A84BA68A8235B00D3581B04444A1A434C
:101A00007B68DA607B6803229A60BB68E833BA6857
:101A1000E8321A60BB68E833BA68E8325A60BB68DB
:101A2000E83300221A81BB68E83300225A81BB6880
:101A30002933FF33BA682932FF321A60BB68293371
:101A4000FF33BA682932FF325A60BB682933FF334B
:101A500000221A81BB682933FF3300225A810023F8
:101A60003B61BA68B8235B00D3587B610023FB60FD
:101A70000DE07B69DA683B699A4202D97B69DB68D1
:101A80003B61FB680133FB607B691C337B617B69D5
:101A90001B68002B03D0FA681E4B9A42E9D9BA683A
:101AA000C4233969D150BB68842292009B187B61A2
:101AB0007B69194A1A60BA68B4235B00D2587B6903
:101AC0009A607B69154A1A617B69154A5A603B69BD
:101AD0005A1C7B69DA60BB68C833BA68C8321A60BE
:101AE000BB68C833BA68C8325A60BB68C8330022C2
:101AF0001A81BB68C83300225A81BA68D4230121F5
:101B0000D150BD4606B080BD00F0FF1FFA2900008D
:101B1000FFFF0000FEFF000003000080E057000010
:101B2000B113000090B58BB000AF786000237B62EA
:101B30007B685B683B62534B3A6A1A603B6A524A65
:101B40001A603B6A514A1A603B6A514A1A603B6A02
:101B5000504A1A603B6A3A1C0C321A603A6A902367
:101B60009B00101C191CFFF739FA396AA8235B0087
:101B70007A68CB1813CA13C313CA13C313CA13C387
:101B8000FFF7FCFE3A6AB2235B00D358002B54D017
:101B90003A6AB2235B00D358FB613A6AB0235B0018
:101BA000D3587B62FA697B6A101C191C00F0E0FBB9
:101BB0007B6A013BFA69D3180F2293431A1C3B6AD4
:101BC000DA63354BBB61BB6997330F2293437B616B
:101BD0003B6A48333B617B691A1C583A3B695A613E
:101BE0003B697A691A61BB690F330F2293431A1C50
:101BF0003B699A613B695A69284B1A60FFF736FBCB
:101C0000031C7B623B6A7533FF33181C0121FFF70D
:101C10005FFD3B6AF433181C0121FFF759FD204B8F
:101C2000181CFFF79BFE0F202321FFF77FFA031CF0
:101C30007B627B6A002B02D103E00C231DE07B6AF0
:101C40001BE0184B181CFFF79DF9002002F036F935
:101C50003B6A4533FF330020191C02F093F9002042
:101C600002F012F9011C3A6A9E235B00D1500E4B20
:101C7000181C002100F0F4FD0023181CBD460BB019
:101C800090BDC04600F0FF1F285900002C590000ED
:101C9000305900003459000044050020C4F1FF1FF2
:101CA0002F42000000000000BD3F000090B587B04B
:101CB00002AF3A4B181C03F027FC031C002B0ED07C
:101CC000374B1B687B607A688D239B00D358181CA8
:101CD000FFF758F97A688E239B00D3585AE0304BAF
:101CE0001B687B60002002F02FF97B68842189004B
:101CF0005A187B68DB69DB687868B6214900405870
:101D00007C6886218900615800900191101C191C83
:101D10000022002300F05CFA031C3B603B68002BB0
:101D200002D1042000F040F83B68181C00F03CFB96
:101D30000023BB607A68B8235B00D358FB6022E0C5
:101D4000FB685A690123134017D07B68DB69D968A7
:101D5000FB689A69134BB8688000C458FB689868A0
:101D6000FB6800940190181C002300F031FA031C5A
:101D70003B603B68181C00F017FBFB681C33FB60E2
:101D8000BB680133BB60FB681B68002BD8D103F034
:101D900099FE0023181CBD4605B090BDC8F1FF1F79
:101DA00000F0FF1F04F0FF1F80B584B000AF786023
:101DB000FFF736FB0B4B1B68FB60FA688E239B001A
:101DC0007968D150FA688B239B00D358002B04D03C
:101DD000FA688B239B00D3589847034B181C0121AA
:101DE00003F0A0FB00F0FF1FC8F1FF1F80B594B007
:101DF00000AF786039609B4B1B68BB647B68002B2D
:101E000010D07B681A0C3B1C46331A80BA6CA8238E
:101E10005B00D3589BB23A1C463212889A4201D0DA
:101E200012231AE17B68181C00F03AF9031C3B648A
:101E30003B6C002B05D0BB6C1A1C48323B6C9A42A1
:101E400001D1122309E1BB6CF433181CFFF7FCFC31
:101E5000FFF7E6FA3B6C9B68092B08D1FFF7F6FA0F
:101E6000BB6CF433181CFFF745FC0023F5E03B6C1A
:101E70009B68022B11D1BB6CDA693B6C9A4250D043
:101E80003B6C5B68FB633B6C1B68BB63FB6BBA6BB7
:101E90001A60BB6BFA6B5A6043E03B6C9A68802314
:101EA0005B00134025D03B6C9A6880235B00134095
:101EB00037D03B6C5B687B633B6C1B683B637B6B25
:101EC0003A6B1A603B6B7A6B5A60BB6C2933FF33F9
:101ED0001A89013A92B21A813B6C9A68624B1A4095
:101EE0003B6C9A603B6C9B6803221A433B6C9A6084
:101EF00017E03B6C9A6880239B00134011D03B6C29
:101F00005B68FB623B6C1B68BB62FB6ABA6A1A6067
:101F1000BB6AFA6A5A603B6CDB6A1A89013A92B270
:101F20001A813B6C9A688023DB00134013D03B6C12
:101F300030335B687B623B6C30331B683B627B6A8F
:101F40003A6A1A603B6A7A6A5A603B6CDB6A1A89A1
:101F5000013A92B21A813B6C09229A60FFF776FA35
:101F60000023FB6411E0BB6CFA6C74329200D3580E
:101F7000002B07D0BB6CFA6C74329200D3583A6CC9
:101F8000101C9847FB6C0133FB64FB6C0F2BEAD9E8
:101F90003B6CDA683B1C1E331A80BB6CDB69BB618F
:101FA0003B6C80221206DA60BB6CC8331B89012BA4
:101FB00008D1BA6CD4230121D150BA6CD8230021A6
:101FC000D15014E0BA6CD423D2583B1C1E331B886A
:101FD0009A420CD93B1C1E331988BA6CD423D150B9
:101FE0003B6C1B6E191C5C39BA6CD823D1503B6C0E
:101FF0005C335B687B613B6C5C331B683B617B697A
:102000003A691A603B697A695A60BB6CC8331A89AD
:10201000013A92B21A81BB6CF433181CFFF76AFBC9
:102020003A6CBB699A4213D1FFF7FAF93B6C5B68D3
:10203000FB603B6C1B68BB60FB68BA681A60BB68DE
:10204000FA685A603B6C181CFFF7AAF903F03DFDD3
:102050003B6C181CFFF7A4F90023181CBD4614B0F4
:1020600080BDC04600F0FF1FFFFEFFFF80B582B0BD
:1020700000AF78607B68181C0021FFF7B7FE031CD7
:10208000181CBD4602B080BD90B500AF034B1C6864
:10209000E369DB68181CBD4690BDC04600F0FF1F19
:1020A00080B586B000AF78602A4B1B68FB607B6808
:1020B000002B02D1FB68DB6947E0FB685A6D7B6847
:1020C0009A4202D1FB6848333FE0FB68DB699B6CB6
:1020D000002B00D172B6FB68DB699A6C01329A64FE
:1020E000FA68C823D3585C3B7B61FB68C8331B8903
:1020F0003B611EE07B69DA687B689A4215D1FB6818
:10210000DB699B6C002B0ED0FB68DB699A6C013A93
:102110009A649B6C002B06D1FB681B8B002B01D0B3
:1021200062B600E062B67B690FE07B69DB6D5C3B09
:102130007B613B695A1E9341DBB23A69013A3A61CD
:10214000002BD7D1FFF782F90023181CBD4606B03B
:1021500080BDC04600F0FF1FB0B582B000AF786010
:102160000E4B1C68238B002B02D0636BDD6801E0F3
:10217000E369DD6C7B68002B01D0002D09D1238B36
:10218000002B03D0636B7A68DA6002E0E3697A6857
:10219000DA642B1C181CBD4602B0B0BD00F0FF1F56
:1021A00080B582B000AF094B1B687B607B68DB6940
:1021B0003B603B685B6E002B02D03B685B6E9847D0
:1021C0000020FFF753FFBD4602B080BD00F0FF1FA7
:1021D00090B58FB002AFF860B9607A603B60634B36
:1021E0001B683B62FB68DA68396AC423CB589A42A1
:1021F0000BD93B6A842080001A18FB689A4204D0ED
:102200000E20FFF7A9FF0023ACE03B6C002B22D08F
:102210007B6C7B627A6A84235B009A4204D802203A
:10222000FFF79AFF00239DE0796A3A1C14323B6C59
:10223000081C111C1A1C002300F0D8F8031CFB62B8
:102240007B697A6AD31A7B623B68002B21D07B6A58
:102250001C3B7B621DE0FB689B687B627B6A982B62
:1022600001D898237B627B6A0F330F2293437B62F2
:102270003B68002B02D07B6A1C3300E07B6A3A1C6F
:102280001432181C111C0022002300F0AFF8031CAC
:10229000FB62FB6A03229A60FB6ADB6E002B03D0B1
:1022A000FB6ADB6EBB6203E07B69FA6AD318BB6230
:1022B0003B68002B15D0BB6AFB61BB6A1C33BB6259
:1022C000FB69FA6813CA13C313CA13C312681A60EE
:1022D000FB69FB60FB681B68802212061A43FB68DF
:1022E0001A60BA6A7B6A101C191C00F041F83B6A3C
:1022F0001A6AFB68DB681B015B42D318BB61FB6A8F
:10230000BA69DA61FB6ABA691A62BB699A89FB6ABF
:102310009A84FB685A69FB6A9A623B6C002B05D071
:10232000FB6A9B6A20221A43FB6A9A62BB699B89FB
:102330001C1CF86AB96A7A6AFB6800947C6801948C
:10234000FEF7EEFF031C002B01D100230AE0FB6A1D
:10235000FA689A65FB681A68FB6A5A65FB6ABA688C
:102360001A65FB6A181CBD460DB090BD00F0FF1F3A
:1023700080B582B000AF786039603B689B0801335C
:102380003B6005E07B68074A1A607B6804337B602A
:102390003B68013B3B603B68002BF3D1BD4602B07C
:1023A00080BDC0466B617473B0B584B000AF786017
:1023B0000D4B1B68FB607B68DC696568FB685B6ACA
:1023C000A34201D2FB685C627B6802229A607B6850
:1023D0005D602A687B681A607B682B607B6863603D
:1023E000BD4604B0B0BDC04600F0FF1F80B58EB042
:1023F00000AFF860B9607A603B6070237B62454B48
:102400001B683B623B6AC8331A89434B9A4201D925
:1024100000237AE0BB687A6A1A607B68002B07D0D9
:102420007B687B637A6B7B6A101C191CFEF7D6FDF8
:102430003A6AD423D2583B1C2A331A803A6AD823EA
:10244000D358FB613A6AA8235B00D3581A043B1C9B
:102450002A331B881A437B6BDA60FB69002B03D19C
:102460003B6AC833FB6202E0FB695C33FB62FB6AD8
:102470001B68BB617B6B5C33BA691A607B6B1A1C8F
:102480005C32FB6A1A607B6B5C33FA6A5A607B6B66
:102490001A1C5C32BB695A603B6AC8331A89013224
:1024A00092B21A817B6B3B633B6BFB61FB69DB6D1B
:1024B0005C3B7B617B693B633B1C2A333A1C2A32C1
:1024C000128801321A803B1C2A331B88002B03D14F
:1024D0003B1C2A3301221A803B6A1A1CC8327B69D2
:1024E0009A4207D07B69DB689BB23A1C2A32128879
:1024F0009A42D9D03A6AD823F969D1503B1C2A3381
:1025000019883A6AD423D1507B6B181CBD460EB093
:1025100080BDC04600F0FF1FFDFF000080B584B005
:1025200000AF786039607B68DB6CFB603B68002B38
:1025300002D0FB68002B02D17B683A68DA64FB6842
:10254000181CBD4604B080BDF0B557464E46454602
:10255000E0B484B000AF031C364A106881464E4692
:102560002936FF364A462932FF321289002A3AD0EC
:10257000942252004946885880464A462932FF3202
:1025800012890132924626E0424638321468556874
:102590001A1C383211685268954214D801D18C4205
:1025A00011D84246383211685268181C3830046815
:1025B0004568954202D804D18C4202D90122524288
:1025C00000E0002200E00122141C002C0ADA46463A
:1025D0004246116888460120404282445146002903
:1025E000D2D100E0C0465A68FA601A68BA60FA6848
:1025F000B9681160BA68F968516032687A607A68BF
:102600001A6033605E607A6853604A462932FF324E
:102610001189013189B211819A68802149000A43E8
:102620009A6003F061FABD4604B01CBC904699461E
:10263000A246F0BD00F0FF1FF8B500AF061C1B4915
:102640000C68002E2ED0E569E169896C002900D163
:1026500072B6E169886C01308864382149198C466A
:1026600088235B00E11808684968321C0026331C87
:1026700012184B4161460A604B60281CFFF764FF4B
:10268000E3699B6C002B0ED0E3699A6C013A9A6463
:102690009B6C002B07D1238B002B01D062B602E08C
:1026A00062B600E0C046BD46F8BDC04600F0FF1F60
:1026B000F0B54F464646C0B485B000AF654B1D68C7
:1026C00088225200A81801684268012300245B1880
:1026D000544103604460EB699B6C002B00D172B6DF
:1026E000EB699A6C01329A64A4235B00EB58002BCF
:1026F0000BD0A4235B00EB58A6225200AA58101C52
:102700009847021C8C235B00EA5088225200AB18C9
:10271000181CFEF723FD94225200AB181B891E1CC7
:10272000002E00D176E094235B00EC5801366CE07B
:102730002368984688225200AB1818685968231CF1
:1027400038331A685B68994215D801D1904212D883
:1027500088225200AB181A685B68211C383108685F
:102760004968994202D804D1904202D901235B42C0
:1027700000E0002300E0012399464B46002B48DB94
:1027800098235B00EB5A013B9AB298235B00EA5214
:102790006368FB602368BB60FB68BA681A60BB684B
:1027A000FA685A60A2682C4B1340A360A268802389
:1027B000DB00134016D0A268284B1340A360231CF3
:1027C00030335B687B60231C30331B683B607B6865
:1027D0003A681A603B687A685A60E36A1A89013A73
:1027E00092B21A81E2696B6A9A4201D9E3696B621B
:1027F0000223A360E3695B68636063681B6823600E
:1028000063681C60E3695C604446013E002E8FD122
:1028100000E0C046EB699B6C002B0CD0EB699A6C16
:10282000013A9A649B6C002B05D12B8B002B01D0B5
:1028300062B600E062B68F239B00EB58002B03D0FA
:102840008F239B00EB589847BD4605B00CBC9046C3
:102850009946F0BD00F0FF1FFFFEFFFFFFFBFFFFEB
:1028600090B583B000AF78603960064B1C68A42334
:102870005B007A68E250A6235B003A68E250BD46EE
:1028800003B090BD00F0FF1F80B586B000AFF860C8
:10289000B9607A6000237B612CE01D4B1F221A7106
:1028A0001B4B1B79DBB21A1C202313400AD17B6916
:1028B000002B24D1C046164B1B79DBB21A1C2023F7
:1028C0001340F8D07B6901337B61114BDB79DAB2BD
:1028D000BB681A70BB681B780D2B03D1BB680A223A
:1028E0001A700DE0BB680133BB607B681B685A1E21
:1028F0007B681A607B681B68002BCED100E0C04665
:102900007B687A691A600023181CBD4606B080BD3A
:1029100000A0064080B586B000AFF860B9607A606C
:1029200000237B6125E0C046184B1B79DBB2DBB28C
:102930005BB2002BF8DABB681B780A2B0AD1134B69
:102940000D22DA71C046114B1B79DBB2DBB25BB2F0
:10295000002BF8DA0D4BBA681278DA71BB680133D4
:10296000BB607B6901337B617B681B685A1E7B6897
:102970001A607B681B68002BD5D17B687A691A6066
:102980000023181CBD4606B080BDC04600A006400E
:1029900080B582B000AF78600023181CBD4602B03D
:1029A00080BDC04680B500AFFDF706FEBD4680BDC8
:1029B00080B500AFFFBEBD4680BDC04680B500AF4C
:1029C0004F4A5049504BD150504A88235B01002157
:1029D000D1504E4A4D494E4BCB58F82189011943ED
:1029E0004B4BD150494A4B4B4B49D150474A474931
:1029F0004A4BCB58802149021943484BD150434B95
:102A0000424A1268C02109030A431A603F4A3F49FB
:102A1000424BC958424B0B408021490419433F4B5C
:102A2000D150404B3F4A916C3F4A0A409A643D4B1B
:102A30003C4AD16C3C4A0A40DA643C4B24225A702E
:102A40003B4B80221A70394B9A221A70374B374A07
:102A5000D278D1B21F220A40D2B2DA70334B0122AF
:102A60001A71324B00225A71C046304B9B79DBB24F
:102A70001A1C10231340F8D1C0462C4B9B79DBB2B3
:102A80001A1C0C231340082BF7D1294B80221A70F3
:102A9000264B9A221A70254B24225A70234B01226E
:102AA0001A71224B40225A71C046204B9B79DBB2EF
:102AB0001A1C0C231340082BF7D1C0461B4B9B79E3
:102AC000DBB21A1C40231340F8D0194B80221A7035
:102AD000164B1A221A70154B24225A70134B0122DE
:102AE0001A71124B40225A71C046104B9B79DBB2CF
:102AF0001A1C0C2313400C2BF7D1BD4680BDC046D9
:102B000000E000E000000000080D0000007004403C
:102B100038100000441000000000011004100000F4
:102B2000FFFFFFFC00900440FFF8FFFE004006405E
:102B30000050064080B500AF304B181CFEF7F2FF86
:102B4000031C002B00D0FEE72D4B2D4A11692D4AA6
:102B50000A40E021C9000A431A612B4B2A4A5279E4
:102B6000D2B21F218A43D2B25A71274B264A127918
:102B7000D2B207218A43D2B21A71244B234A127867
:102B8000D2B2D2B273218A43D2B250210A43D2B216
:102B9000D2B21A701D4B1D4A5278D2B2D2B2632102
:102BA0008A43D2B240210A43D2B2D2B25A70174BF2
:102BB000164A9278D2B219218A43D2B29A70144B33
:102BC00000221A700E4B0E4A116D0E4A0A40E02187
:102BD000C9000A431A650F4A0E49C1239B00C95810
:102BE0000D4B1940C1239B00D150002001F094F8F7
:102BF000002000F013F8BD4680BDC04648590000D3
:102C000000900440FFF8FFFE00F0074000D00740AE
:102C100000E0074000E100E0FFFF00FF80B584B066
:102C200000AF78601F4BFB60FB6800221A60FB68F6
:102C30007A685A601C4A1C491C4BCB5880210906F3
:102C400019431A4BD1501A4A19492123CB5CD9B2E6
:102C50007F230B40D9B22123D154164B154A916FD3
:102C6000154A0A409A67124B09225A70104BB22239
:102C70001A700F4A23230F21D1540D4A2223002119
:102C8000D1540B4A20230021D154094A2123802109
:102C9000D1540A4BFA689A61FB68181CBD4604B00F
:102CA00080BDC046F4F0FF1F007004403C100000DF
:102CB00000F0034000D00440FFF8FFFE6CF1FF1F5E
:102CC00080B582B000AF786039600D4B3A68D2B2FF
:102CD0001A700B4B0A4A5278D2B2D2B20F218A43F1
:102CE000D1B23A6892B2120A92B2D2B20A43D2B2C6
:102CF000D2B25A700023181CBD4602B080BDC04637
:102D000000F0034090B585B000AF78607B68BB6091
:102D10003B1C0E3300221A80894BDB78DCB2884BD7
:102D2000874AD278D2B2D2B212218A43D1B2E2B269
:102D30000A43D2B2D2B2DA70814B9B78DBB21A1C52
:102D40002023134000D1CAE07D4B9B78DBB21A1CD4
:102D50001023134000D181E0221C0123134025D011
:102D6000774B774A9278D2B220218A43D2B29A70B6
:102D7000734B734A9278D2B210218A43D2B29A70BE
:102D8000BB6800221A81BB6800225A80BB681B788E
:102D900001229343DAB2BB681A703B1C0E333A1C13
:102DA0000E32128808210A431A80BCE0BB681B89D6
:102DB000002B0ED0BB681B89013B9AB2BB681A81FD
:102DC0005F4ABB68DB68197811715A1CBB68DA600E
:102DD000A9E0BB685B88002B1FD0BB685B88012B18
:102DE00008D1574B564A9278D2B208210A43D2B240
:102DF0009A7007E0524B524A9278D2B208218A4325
:102E0000D2B29A704E4B4E4A9278D2B210218A4377
:102E1000D2B29A704A4B1B7985E0BB681B780122BD
:102E20009343DAB2BB681A70BB685B78012B0FD191
:102E3000434B434A9278D2B220218A43D2B29A704D
:102E40003F4B3F4A9278D2B210218A43D2B29A7055
:102E5000BB689B69181CFDF7B3FB64E0BB685B882B
:102E6000013B9AB2BB685A80BB685B88002B0CD0D0
:102E7000BB685B88012B1FD1314B314A9278D2B2AB
:102E800008210A43D2B29A7016E0BB681B7801226F
:102E90009343DAB2BB681A70294B294A9278D2B2AE
:102EA00020218A43D2B29A70254B254A9278D2B219
:102EB00008218A43D2B29A70BB685B68204A1279B3
:102EC000D2B21A705A1CBB685A60BB685B88002B70
:102ED00029D1BB689B69181CFDF77EFB23E0221CEF
:102EE000102313401FD0BB6800221A81BB68002248
:102EF0005A80BB6801225A70BB681B780122934339
:102F0000DAB2BB681A700E4B0D4A9278D2B2102119
:102F10008A43D2B29A703B1C0E333A1C0E3212888E
:102F200004210A431A803B1C0E331B88002B04D05B
:102F3000BB689B69181CFDF75BFBBD4605B090BDE7
:102F40000060064080B584B000AF78603E4BFB6007
:102F5000FB687A689A611820FEF798FA021CFB68F1
:102F60005A613A4AFB681820111C1A1CFEF7C2FA73
:102F7000021CFB681A61FB6800221A70FB680122C0
:102F80005A70FB6800225A80FB6800221A81304A7E
:102F90002F49304BCB58402119432E4BD1502E4B4B
:102FA00000229A702C4B40229A712B4B0222DA702D
:102FB0002A4B2A4A516E2A4A0A40A021C9000A43D4
:102FC0005A66264B254A116E254A0A40A021C9009F
:102FD0000A431A66234A2349C2239B00CB58FF2188
:102FE0008B4380211943C2239B00D1501D4B1D4AA6
:102FF0001268802149000A431A60174B00225A7157
:10300000154B00229A71144B08221A72124B25227A
:103010005A70114B104A9278D2B2D2B280214942F2
:103020000A43D2B2D2B29A700B4B0B4A9278D2B208
:1030300040210A43D2B29A700B4BFA681A61FB68BE
:10304000181CBD4604B080BDFCF0FF1F052D00001C
:1030500000700440341000000060064000D00440BE
:10306000FFF8FFFE00E100E06CF1FF1F80B586B0C5
:1030700000AFF860B960111C1A1CBB1D19807B1DC4
:103080001A70FB687B61BB1D1B88002B01D10023DC
:1030900060E07B695B78012B12D1304BDB78DBB2CF
:1030A0001A1C2023134009D17B691B781A1C0123A9
:1030B000134003D17B691B89002B0DD0082349E005
:1030C0007B691B781A1C0123134003D17B691B8980
:1030D000002B01D008233DE0FEF7A2F97B691B78A5
:1030E00001221343DAB27B691A707B69BA68DA602D
:1030F0007B69BA1D12881A817B697A1D12785A7011
:10310000164B164A9278D2B2D2B210210A43D2B2EA
:10311000D2B29A70114B9B78DBB21A1C2023134059
:1031200008D00E4B0D4A9278D2B204210A43D2B293
:103130009A7009E0094B094A9278D2B2D2B22021A2
:103140000A43D2B2D2B29A70044B3A221A71FEF7F5
:103150007DF90023181CBD4606B080BD0060064006
:1031600080B586B000AFF860B960111C1A1CBB1D99
:1031700019807B1D1A70FB687B61BB1D1B88002BAF
:1031800001D1002366E07B1D1B78002B01D1812338
:1031900060E07B695B78012B12D1304BDB78DBB2CE
:1031A0001A1C2023134009D17B691B781A1C0123A8
:1031B000134003D17B695B88002B0DD0082349E0C5
:1031C0007B691B781A1C0123134003D17B695B8840
:1031D000002B01D008233DE0FEF722F97B691B7824
:1031E00001221343DAB27B691A707B69BA685A60AC
:1031F0007B69BA1D12885A807B697A1D12785A70D1
:10320000164B164A9278D2B2D2B210210A43D2B2E9
:10321000D2B29A70114B9B78DBB21A1C2023134058
:1032200008D00E4B0D4A9278D2B204210A43D2B292
:103230009A7009E0094B094A9278D2B2D2B22021A1
:103240000A43D2B2D2B29A70044B3B221A71FEF7F3
:10325000FDF80023181CBD4606B080BD0060064086
:1032600080B584B000AF786039607B68FB60084B44
:10327000DB78DBB21A1C202313405A425341DBB2E5
:10328000DAB23B681A700023181CBD4604B080BD3A
:103290000060064090B585B000AF78607B68BB6089
:1032A0003B1C0E3300221A80A54BDB78DCB2A44B0A
:1032B000A34AD278D2B2D2B212218A43D1B2E2B2B8
:1032C0000A43D2B2D2B2DA709D4B9B78DBB21A1CA1
:1032D0002023134000D101E1994B9B78DBB21A1CEB
:1032E0001023134000D1B8E0221C012313402CD03E
:1032F000934B934A9278D2B220218A43D2B29A70E9
:103300008F4B8F4A9278D2B210218A43D2B29A70F0
:10331000BB6800229A81BB6800229A80BB681B7838
:1033200001229343DAB2BB681A70BB681B7806228D
:103330001343DAB2BB681A703B1C0E333A1C0E32D0
:10334000128808210A431A80ECE0BB681B781A1C1B
:103350000223134000D174E0BB689B89002B0ED080
:10336000BB689B89013B9AB2BB689A81744ABB686F
:103370001B69197811715A1CBB681A61D2E0BB68CD
:103380009B88002B3CD0BB681B781A1C042313407D
:103390001FD0BB689B88012B08D1694B684A927883
:1033A000D2B208210A43D2B29A7007E0644B644A51
:1033B0009278D2B208218A43D2B29A70604B604AA6
:1033C0009278D2B210218A43D2B29A705C4B1B79A8
:1033D000A8E05B4B5A4A9278D2B204210A43D2B297
:1033E0009A70574BBA68D27801210A43D2B21A7147
:1033F000BB681B7804221343DAB2BB681A7091E0F1
:10340000BB681B7801229343DAB2BB681A70BB68B1
:103410005B78012B0FD14A4B494A9278D2B22021D6
:103420008A43D2B29A70464B454A9278D2B2102162
:103430008A43D2B29A70BB68DB69181CFDF7F0F8BA
:1034400070E03F4BBA6892781A71BB681B78022211
:103450001343DAB2BB681A7064E0BB689B88013B17
:103460009AB2BB689A80BB689B88002B0CD0BB6863
:103470009B88012B1FD1324B314A9278D2B208215E
:103480000A43D2B29A7016E0BB681B7801229343BC
:10349000DAB2BB681A702A4B294A9278D2B220213C
:1034A0008A43D2B29A70264B254A9278D2B208212A
:1034B0008A43D2B29A70BB689B68214A1279D2B211
:1034C0001A705A1CBB689A60BB689B88002B29D174
:1034D000BB68DB69181CFDF7AFF823E0221C102342
:1034E00013401FD0BB6800229A81BB6800229A80DB
:1034F000BB6801225A70BB681B7801229343DAB281
:10350000BB681A700E4B0E4A9278D2B210218A43D1
:10351000D2B29A703B1C0E333A1C0E321288042130
:103520000A431A803B1C0E331B88002B04D0BB6857
:10353000DB69181CFDF78CF8BD4605B090BDC04690
:103540000070064080B584B000AF7860404BFB60EF
:10355000FB687A68DA611920FDF798FF021CFB68A6
:103560009A613C4AFB681920111C1A1CFDF7C2FF26
:10357000021CFB685A61FB6820221A70FB689022CB
:103580009A70FB6801225A70FB6800229A80FB68DF
:1035900000229A81304A3049304BCB588021194360
:1035A0002E4BD1502E4B00229A702D4B40229A71F7
:1035B0002B4B0222DA702B4B2A4AD16A2A4A0A4044
:1035C000802189000A43DA62264B264A916A264AFC
:1035D0000A40802189000A439A62244A2349C2236F
:1035E0009B00C958224B0B40802109021943C2237A
:1035F0009B00D1501D4B1D4A1268802189000A434F
:103600001A60174B00225A71154B00229A71144B05
:1036100008221A72124B10225A70114B104A9278DB
:10362000D2B2D2B2802149420A43D2B2D2B29A7007
:103630000B4B0B4A9278D2B240210A43D2B29A7015
:103640000C4BFA685A61FB68181CBD4604B080BD7B
:1036500018F1FF1F95320000007004403410000084
:103660000070064000B00440FFF8FFFE00E100E0FB
:10367000FF00FFFF6CF1FF1F80B586B000AFF86060
:10368000B960111C1A1CBB1D19807B1D1A70FB68C8
:103690007B61BB1D1B88002B01D1002391E07B695E
:1036A0005B78012B12D1494BDB78DBB21A1C20234B
:1036B000134009D17B691B781A1C0123134003D1E5
:1036C0007B699B89002B0DD008237AE07B691B78EE
:1036D0001A1C0123134003D17B699B89002B01D065
:1036E00008236EE0FDF79CFE7B691B7801221343E3
:1036F000DAB27B691A707B69BA681A617B69BA1D94
:1037000012889A817B697A1D12785A702F4B2F4A42
:103710009278D2B2D2B210210A43D2B2D2B29A7007
:103720002A4B9B78DBB21A1C2023134008D0274B6E
:10373000264A9278D2B204210A43D2B29A7009E0A2
:10374000224B224A9278D2B2D2B220210A43D2B27C
:10375000D2B29A707B691B781A1C202313400BD0BD
:103760007B691B7806221343DAB27B691A70174B08
:103770007A6992781A7121E07B691B781A1C1023F0
:1037800013400BD07B691B7806229343DAB27B6926
:103790001A700E4B7A69D2781A710FE07B691B7828
:1037A0001A1C0823134009D07B691B78022213439B
:1037B000DAB27B691A70054B00221A71FDF746FEDA
:1037C0000023181CBD4606B080BDC04600700640F0
:1037D00080B586B000AFF860B960111C1A1CBB1D23
:1037E00019807B1D1A70FB687B61BB1D1B88002B39
:1037F00001D1002391E07B1D1B78002B01D1812397
:103800008BE07B691B781A1C0823134001D0092325
:1038100083E07B695B78012B12D1424BDB78DBB212
:103820001A1C2023134009D17B691B781A1C012321
:10383000134003D17B699B88002B0DD008236CE0DB
:103840007B691B781A1C0123134003D17B699B8879
:10385000002B01D0082360E0FDF7E2FD7B691B78B7
:1038600001221343DAB27B691A707B69BA689A60E5
:103870007B69BA1D12889A807B697A1D12785A700A
:10388000284B284A9278D2B2D2B210210A43D2B23F
:10389000D2B29A70234B9B78DBB21A1C20231340C0
:1038A00008D0204B1F4A9278D2B204210A43D2B2E8
:1038B0009A7009E01B4B1B4A9278D2B2D2B22021F7
:1038C0000A43D2B2D2B29A707B691B781A1C2023A9
:1038D00013400ED07B691B7806221343DAB27B6952
:1038E0001A70104B7A69927801210A43D2B21A7188
:1038F00010E07B691B781A1C102313400AD07B69E7
:103900001B7806229343DAB27B691A70054B7A69F9
:10391000D2781A71FDF79AFD0023181CBD4606B037
:1039200080BDC0460070064080B584B000AF7860AE
:1039300039607B68FB60084BDB78DBB21A1C202304
:1039400013405A425341DBB2DAB23B681A7000238B
:10395000181CBD4604B080BD0070064080B584B020
:1039600000AF7860224BFB60FB687A685A60214A9E
:103970002049214BCB588021490419431E4BD1507B
:103980001E4B00221A601D4B00225A601B4B002266
:10399000DA601A4B00225A61184B0022DA61174B89
:1039A00000225A62154B0022DA62144B00225A633D
:1039B000124B134A9A60114B2C225A610F4B114A39
:1039C0009A61114B104A5168104A0A408021C9007F
:1039D0000A435A60FB6808221A60084B09221A60E1
:1039E0000B4BFA68DA60FB68181CBD4604B080BD5A
:1039F00038F1FF1F007004403C10000000800340BD
:103A0000FFFF0000AAAA000000C00440FFF8FFFE6C
:103A10006CF1FF1F80B584B000AF78607B68FB60FD
:103A2000074B074A12689821101C8843011CFA684A
:103A300012680A431A600023181CBD4604B080BDFA
:103A40000080034080B584B000AFF8607A603B1C12
:103A50000B330A1C1A703B1C0B331B78002B01D054
:103A600082231BE03B1C0B331B780E4AD35C002BDC
:103A700001D0092312E00C493B1C0B331B780B4A85
:103A8000D35C7A6892B20133DB00CB189A607A6813
:103A9000074B9A4201D9982300E00023181CBD4629
:103AA00004B080BD3C59000000800340385900003C
:103AB000FFFF000080B584B000AF7860374BFB603B
:103AC000FB687A681A612320FDF7E0FC021CFB68A2
:103AD0005A60334AFB682320111C1A1CFDF70AFDAB
:103AE000021CFB681A602F4A2E492F4BCB588021AD
:103AF000C90419432C4BD1502C4B00221A602B4B7C
:103B000000225A60294B0022DA60284B00225A61B9
:103B1000264B274A9A60254B6C22DA60234B002201
:103B20001A61224B2C225A61204B224A9A61224B65
:103B3000214A916C214A0A40C02189000A439A64B3
:103B40001D4B1D4AD16C1D4A0A40C02189000A4301
:103B5000DA64FB681A4A9A60FB680822DA60194A3C
:103B60001849C4239B00CB581B021B0A802109065D
:103B70001943C4239B00D150124B124A1268802172
:103B800009030A431A60094B49221A600E4BFA686E
:103B90009A60FB68181CBD4604B080BD40F1FF1F51
:103BA0006D3C0000007004403C10000000A0034089
:103BB000FFFF00005555000000A00440FFF8FFFE85
:103BC0000101000000E100E06CF1FF1F80B584B04E
:103BD00000AF78607B68FB60074B074A126898214A
:103BE000101C8843011CFA68D2680A431A6000233B
:103BF000181CBD4604B080BD00A0034080B584B051
:103C000000AFF8607A603B1C0B330A1C1A703B1C37
:103C10000B331B78012B01D982231BE03B1C0B3398
:103C20001B780E4AD35C002B01D0092312E00C490B
:103C30003B1C0B331B780B4AD35C7A6892B201337E
:103C4000DB00CB189A607A68074B9A4201D9982317
:103C500000E00023181CBD4604B080BD445900009C
:103C600000A0034040590000FFFF000080B584B071
:103C700000AF78607B68BB600023FB60244B1A6850
:103C80008023134004D0FB68802252001343FB6062
:103C90001F4A204B1B780133DB00D3185A6880235E
:103CA000134003D0FB6801221343FB60BB689A6892
:103CB000FB681340FB60FA6880235B0013400AD066
:103CC000134B134A126880210A431A60BB681B69B0
:103CD000181CFCF795FCFA680123134015D00C4919
:103CE0000C4B1B78181C0A4A0A4B1B780133DB006B
:103CF000D3185B6880221A43431CDB00CB185A6040
:103D0000BB681B69181CFCF783FCBD4604B080BD72
:103D100000A003404059000080B584B000AF786037
:103D20004B4BFB60FB6800225A80FB6800221A8123
:103D3000FB6800225A60FB6800225A81FB6800225F
:103D40001A82FB680022DA60FB687A685A61414A8D
:103D50004049414BCB588021C90019433E4BD150BB
:103D60003E4B3E4A51683E4A0A40802189000A4340
:103D70005A603A4B394A9168394A0A408021890091
:103D80000A439A60374B374AD278D2B208218A4325
:103D9000D2B2DA70334B334AD278D2B204218A439A
:103DA000D2B2DA70FB6800221A802E4B00229A7081
:103DB0002C4B00229A712B4B00225A71254A25491F
:103DC000294BC958294B0B408021C9041943264B64
:103DD000D150244B234A1278D2B21F218A43D2B247
:103DE0001A70204B68225A701E4B1E4A927AD2B229
:103DF000D2B21F218A43D2B203210A43D2B2D2B235
:103E00009A72184B174AD27AD2B2D2B202210A431E
:103E1000D2B2D2B2DA72134B124AD278D2B2D2B242
:103E200008210A43D2B2D2B2DA700E4B0D4AD278D0
:103E3000D2B2D2B204210A43D2B2D2B2DA700C4B5F
:103E4000FA685A60FB68181CBD4604B080BDC046C5
:103E500054F1FF1F00700440341000000090044033
:103E6000FFF8FFFE00A0064004100000FFFFFFF374
:103E70006CF1FF1F80B582B000AF7860FEF718FCD0
:103E8000BD4602B080BDC04680B584B000AF78604A
:103E9000002000F06BF8031CFB603B1C0833002083
:103EA000191C00F06FF8BB68F868191CFCF7D4FA0D
:103EB000031C181CBD4604B080BDC04680B584B04C
:103EC00000AF78601A4BFB60FB687A689A600F203D
:103ED000FDF7DCFA021CFB685A60164AFB680F20EB
:103EE000111C1A1CFDF706FB021CFB681A60124B22
:103EF00000221A60104B114A5A600F4B00229A6040
:103F00000F4A0F49D2231B01CB581B021B0A8021E9
:103F100089051943D2231B01D150074B06221A6091
:103F2000084BFA681A60FB68181CBD4604B080BDD7
:103F300088F1FF1FD53F000010E000E0BF5D0000EA
:103F400000E000E06CF1FF1F80B582B000AF786048
:103F5000054B054A126801210A431A600023181C08
:103F6000BD4602B080BDC04610E000E080B582B022
:103F700000AF7860024B181CBD4602B080BDC04641
:103F8000006CDC0280B584B000AF786039600A4B09
:103F90005B68FB60FB680133FB603B68FA681A6092
:103FA0003B681B681B021A0A3B681A600023181C36
:103FB000BD4604B080BDC04610E000E080B582B0D0
:103FC00000AF7860024B9B68181CBD4602B080BDF4
:103FD00010E000E080B584B000AF78607B68FB60E3
:103FE000064B064A1168064A0A401A60FB689B683D
:103FF000181CFFF73FFFBD4604B080BD10E000E095
:10400000FFFFFEFF0FB41FB506AB04CB00210091EC
:1040100004480549039300F047F905B008BC04B013
:104020001847C046B150000054F0FF1F08B50849BA
:104030008B6E5A1E8A66002B05D04B6EC0B218706C
:1040400001334B6602E0443100F031FF08BDC04649
:1040500010F0FF1F70B5154C051C261C44360EE0F1
:10406000A36E5A1EA266002B04D0636E1870013333
:10407000636604E0311C00F01AFF431C0FD028785F
:1040800001350028ECD10BE0636E0A201870013373
:10409000636604E0211C44310A2000F008FF70BD73
:1040A000A36E5A1EA266002BEED1F3E710F0FF1F9D
:1040B00038B5051C01F00AFA01F0B2F9084C236882
:1040C000002B02D0984700232360064C2368002B66
:1040D00002D0984700232360281CFCF713FF38BD4B
:1040E00094F1FF1F98F1FF1F10B5002302E0CC5C94
:1040F000C45401339342FAD110BD10B5041C01F031
:10410000CEF8201C10BD0000F0B589B01D1C0EAB10
:104110001B780C1C04930FAB1F78013C002301900B
:104120000391079202902370984217D1119A9A42F4
:1041300014D1049B002B01D06F2F32D0692F02D0F5
:10414000642F00D0AAE0022D02D1039C023CA3E020
:10415000012D00D0A2E0039C023C98E0692F0FD013
:1041600004D8582F19D0642F21D109E0752F04D01D
:10417000782F12D06F2F1AD115E0002500951BE083
:10418000019A002A13DA80231B069A4212D0524267
:1041900001230192029200930EE000250095102663
:1041A0000BE0119D00E000250095082605E00021A8
:1041B000009101E0012200920A260023069301E00B
:1041C00006901C1C0298311CFCF78AF90298059194
:1041D000311CFCF741F905990290092902D80A1C03
:1041E000303205E0059A3732782F01D1059A5732DF
:1041F00006980299631ED2B21A7001300029DFD1ED
:10420000082E09D10499002906D0302A04D0069836
:10421000A31E30221A700230079A022A10D1009988
:10422000002901D1002D02D0109A013A1092109964
:104230001191102E04D1049A002A01D00239119153
:10424000039A0024D11A119A8918164A914225DC42
:10425000302202E0013B1A70013011991C1C884287
:10426000F8DB102E0AD1019A002A07D0049B002BFC
:1042700004D0631E1F70023C302323700099002974
:1042800002D0013C2D2308E0012D02D1013C2B235B
:1042900003E0022D02D1013C20232370201C09B031
:1042A000F0BDC046FD010000F0B5AD4C0027A544AF
:1042B0001C1CAC4B0B916B4420210A901970099285
:1042C0000897EBE10998252101F046F804900028B1
:1042D00010D1099801F04FF8089F021C3F180028E0
:1042E00000D1E4E10B9809990A9DA847002800D065
:1042F000DDE1DAE1049D09982D1A079507D02A1C03
:104300000B9809990A9DA847002800D1CDE104988F
:1043100045782B1C252D0AD1002602300123099057
:104320000696321C311CB446371C0593A6E0049A4D
:104330000021012501320F1C05952B2B00D1BDE179
:1043400004DC202B08D0232B11D109E02D2B00D128
:10435000B2E1302B0BD105E0012F00D0B0E1B3E189
:104360000121B1E1059D002D00D0ABE1ACE12A2B8C
:1043700003D0002506950A2612E0251D2468069420
:10438000002C03DA6042002306900593501C5378FA
:104390002C1C0AE0069B73435D1906955378013285
:1043A0001D1C303D101C092DF4D96F4A069D954205
:1043B00006DD002601300990FF25321CB4465DE081
:1043C0002E2B1CD143782A2B04D0421C0A20002615
:1043D00084460CE026680434F343DB0F9C46837864
:1043E00002300EE063465E435378761901321D1C9D
:1043F000303D101C092DF5D90125AC4601E0002601
:10440000B446682B00D162E103226C2B00D15FE13E
:104410000022DDB26E2B2FD00ADC632B1BD002DC16
:10442000582B28D110E0642B0ED0692B23D10BE040
:10443000732B13D004DC6F2B06D0702B1BD110E034
:10444000752B01D0782B16D16346002B0ED0059B1F
:10445000022B11D10CE06346002B0CD1002A0AD1AB
:104460000AE0782508260322012105E0012603E061
:104470000123059300E0FF25013009900898079B70
:10448000C01808906E2D75D010D8632D00D184E02F
:1044900006D8252D00D186E0582D00D089E022E0F5
:1044A000642D0FD0692D00D083E00BE0732D36D042
:1044B00003D86F2D00D07CE015E0752D13D0782D3A
:1044C00077D110E0231D07932068032A06D0022A23
:1044D00001D100B202E0012A00D140B20091069958
:1044E000019502910FE0231D07932068032A06D04F
:1044F000022A01D180B202E0012A00D1C0B2069A9C
:104500000091019502928DA9059A3B1C0396FFF735
:10451000FBFD041E4DD0154F6F443F1B59E0231D7A
:1045200024680793002C00D1114C002907D0604665
:104530002778013400284CD0B74249DC49E0624674
:10454000201C002A07D0321C00F0F9FE371C00287E
:104550003FD0071B3DE000F00EFF071C39E0C046CE
:10456000C4FDFFFF36020000FD0100003302000021
:10457000C0590000251D07952368022A05D0032A8B
:1045800008D0002A00D088E004E068462021085ABC
:10459000188082E0089D1D607FE02268201D0DAB21
:1045A00007901A7002E00DAB1D7007941C1C0127C8
:1045B0000FE0049800F0DFFE089F041E06D00B9861
:1045C0000499221C0A9DA84700286ED03F196EE06E
:1045D000371C05983E1C00283FD03023022800D00D
:1045E00020233D4A6A44137022782D2A04D02B2AB6
:1045F00002D00497202A0CD10497302B09D10B98B4
:10460000211C01220A9B984700284ED0781E0134B5
:1046100004900599022911D1412D01D0612D0DD1B0
:10462000049D012D41DD0B98211C02220A9DA84703
:1046300000283AD0049D0234023D04953E1C08E057
:1046400025490B98694401220A9DA84700282CD0CF
:104650000136069DAE42F3DB049F002F06D00B9877
:10466000211C3A1C0A9DA84700281ED0059D002D3C
:1046700010D109E025700B98211C01220A9B984754
:10468000002812D0013602E0144C20256C44069814
:104690008642EFDB089DAD190895079C099D2B7894
:1046A000002B00D00EE6089F01E001277F42381C56
:1046B0008F239B009D44F0BD002504E0012703E00B
:1046C000022701E0022505955378013235E60222E2
:1046D000437801309DE6C0463602000037020000F4
:1046E000F0B5ADB01193329B07904F2000240A9291
:1046F00068445A1E93410F1C0F940C9409940D9416
:104700000B94261C037072E3069800F0B9FB051E9B
:1047100020D00A9D013528780A9500F0B1FB0028C9
:10472000F7D1002C00D061E300E001360021079DA5
:10473000381C0A1CA847051C00F0A2FB0028F4D175
:10474000681C04D1329C002C00D15CE30124381C8D
:10475000291C24E3069960426041129025291CD04F
:1047600000281AD0291C079C381C2A1CA047069C2C
:10477000C1B2A1420BD0381C0122079DA847329C30
:10478000002C00D13FE30A9D01350A952EE30A9CD7
:10479000013601340A942C1C29E31FAD0021281C8A
:1047A0002822FFF7AAFC0A99B14849786860069167
:1047B000081C252913D115A8E970021C0BCD0BC2CA
:1047C0000BCD0BC20BCD0BC2296811600A9D0235BF
:1047D0000A95002510950E95A54D08951DE12A29ED
:1047E00003D00A9D0135059506E001232B700A9D33
:1047F000023505950A9DA878021C303A092A36D858
:1048000000210891A4460A210025059B00E0131C05
:104810004D4330382D1858785A1C041C303C092C54
:10482000F5D905931FAB644608959C462095002D4D
:1048300019D101256D4215A8DD700690021C191CC6
:1048400029C929C229C929C229C929C209681160EF
:10485000059D614602350A780A95FF250695089D53
:104860000E951095CEE0012361464B7005921FAA6C
:10487000682802D06C280FD10BE0059B02219170B3
:104880005978682900D0E5E201215B189170059301
:10489000E0E203219170DDE21FAAD0705838202891
:1048A00000D993E0FBF7CEFD9492922D92929292D2
:1048B000929292159492929292949292929294944D
:1048C00011929219929492929400032191707821FE
:1048D0007DE0917800297BD078E09178002901D0A3
:1048E000FF21D170059B00221FA9FF208D180132E6
:1048F0002872202AFAD1C1224A72FE2205930A7335
:1049000066E09178002901D0FF21D170059D6A7879
:104910005E2A04D0013500200595069005E0059932
:1049200001238A780231059106935D2A33D11FAAAB
:10493000D17C059D20200143D1746A78013505950D
:1049400029E0D4B2E1081FA8072541182C40012016
:10495000A040041C087A2043087258782D2817D1EB
:104960009978002914D05D290CD111E0D5B2E8085E
:104970001FAC2018072425400124AC40251C047AD4
:104980002C43047201328A42F0DDDA78033304E00A
:104990000133021C01E0059BA4465D2A01D0002AD8
:1049A000CFD164460593002A02D1FF211FAA0EE051
:1049B000069D002D0CD0059B29A921AA1078C04383
:1049C000107001328A42F9D1059301E0FF21D170C4
:1049D0001FA915A8021C081C8C462AC82AC22AC86E
:1049E0002AC22AC82AC20068634610605D781A7815
:1049F00010959D780E95DD7806955D680895059D66
:104A000001350A950025AA4208D1069D252D04D01E
:104A1000119805680430119000E0002506996E2970
:104A20000ED0129A002A0BD0079C381C00210222BB
:104A3000A047041E04D0329C002C00D1E3E10124E5
:104A4000069869282DD015D85B2800D12BE106D80F
:104A5000252800D1EBE0582800D0D4E14EE006999B
:104A6000632900D188E0642900D0CCE117E0C0467A
:104A7000FFFFFF7F069A732A00D1F9E006D86E2A5D
:104A800000D19DE16F2A00D0BDE106E0069B752BA9
:104A900036D0782B00D0B6E130E0082031E00A2093
:104AA00000E00020002C20D129AB00932AAB019319
:104AB0002BAB029308993B1C079A00F008FB299B3B
:104AC000002B05D1329C002C00D197E101240EE08F
:104AD00080210906F6184318002B04D02A9B002BCE
:104AE00001D0434203E0031C01E001240023002D18
:104AF0003ED00E9A101C032A2CD934E0102000E07E
:104B00000A20002C1FD129AB00932AAB01932BABB9
:104B10000293079A3B1C089900F0D9FA299A031CC2
:104B2000002A06D1329C002C00D16AE10124131C1A
:104B30000BE0B6182A9A002A07D08022120690426B
:104B400003D0434201E001240023002D10D00E9831
:104B5000032808D8FBF776FC060204062B7002E057
:104B60002B8000E02B600B9D63426341ED180B9599
:104B70000D9D01350D9578E01098002801D1012197
:104B80000891002D3DD0002329939C4200D02DE1B7
:104B9000099804E02870299B013501332993089A6C
:104BA000002A16D0329B002B04D0299B002B0CDA54
:104BB00001200F9000210A1C381C079B9847089978
:104BC00001390891421CE5D103E0002509900F95B9
:104BD00000E00990299B002B09D00F9D002D0BD1DF
:104BE0004F2068440278002A00D0F8E004E0329CAC
:104BF000002C00D107E1F9E00B9DF61801350B956B
:104C0000DAE02995089D02E0299B01332993002DC4
:104C100008D00021381C0A1C079B9847013D0990C9
:104C20000130F1D1299B002B00D0C5E0EBE0002C36
:104C300000D0D8E000E001360021079D381C0A1C96
:104C4000A847051C00F01CF90028F4D1252D0BD035
:104C5000291C079C381C0122A047329D01240C947A
:104C6000002D00D1CFE0C2E0013601250C95BEE059
:104C700001200C90002C16D1381C211C221C03E0B2
:104C800000210136381C0A1C079B9847069006989D
:104C900000F0F6F80028F3D1381C06990122079B92
:104CA000984701200C90002D54D0002329939C425A
:104CB00000D09BE0089909980139069114E0069A02
:104CC000C3B2013A069207221A40012191408C4654
:104CD00015AAD9085118097A624611421DD02B70C5
:104CE000299B013501332993069B191C0893013137
:104CF00013D0329A002A04D0299B002B09DC01230F
:104D00000F9300210A1C381C079B9847411CD6D1E1
:104D100003E0002209900F9200E0099009AB197896
:104D2000299B002B07D00F9800280CD14F206844F6
:104D30000278002A07D0381C0122079CA047329D28
:104D4000002D60D052E0F61800232B700B9D01352A
:104D50000B952AE02995089D0998013D0FE0C3B203
:104D600007221A40012191400A1CDB0815A9CB1823
:104D70001B7A013D13420CD0299B013329930895DE
:104D80006A1C06D000210A1C381C079B9847411C4E
:104D9000E5D1299B0990002B05D10999381C0122E6
:104DA000079DA84723E00999F618089D002D03DB0D
:104DB000381C0122079DA8470D9D01350D9516E071
:104DC000002D14D00E98032811D8FBF73BFB0406E6
:104DD00002042E800BE02E6009E02E7007E0002513
:104DE00001240F9503E001240C9400E001240A9DA6
:104DF0002D780695002D00D086E404E001240C9463
:104E000001E001250C95381C00210222079DA847CE
:104E1000002802D00D9C002C16D00C9D002D16D021
:104E20000D9C002C13D100210A1C381C079DA8479B
:104E30000021041C0222381CA847002804D1381C79
:104E4000211C0122A84702E001235B420B930B982F
:104E50002DB0F0BD05994878013105911CE5C0469B
:104E600000B58022031C52000020934204D8034A5C
:104E7000D31858780123184000BDC046C15900001E
:104E800000B58022031C52000020934204D8034A3C
:104E9000D31858781023184000BDC046C1590000EF
:104EA00000B5031C613B192B00D8203800BD38B574
:104EB000CB790022051C0C1C4A6293423BD00B7B31
:104EC000934238D14B7A934207D14B799A0704D554
:104ED00001234B72081C00F058FA637A012B22D18F
:104EE000A379022B05D0A369226AD21AE3699A42F8
:104EF00005D1201C002100F052FA002813D1636A6A
:104F0000013B6362236A1D7001332362A379022B84
:104F100013D00A2D01D0002B0AD1201C002100F053
:104F20003EFA002804D0012323730023636202E0C9
:104F30000023636201E001256D42281C38BDF0B5F5
:104F40000D1C554387B0061C03911C1C281E00D164
:104F5000ACE01B7B0020834200D0A7E0E079002872
:104F600000D1A3E0E269009395420BD8237A012196
:104F70000091002B06D0A379022B03D0013B5A42AB
:104F80005A410092637A002B07D16379990704D5BF
:104F900001236372201C00F0F8F9637A012B04D01E
:104FA000012300202373606280E069460978236A48
:104FB000A2690291002904D19F1A791E8F41002F06
:104FC00048D0E169D31A5B1863620027636A0593CE
:104FD000AB4200D90595059A002A0ED0A379012B82
:104FE0000BD1301C0A2100F09CF90190002806D05A
:104FF000031C01339B1B059301E000220192059ADB
:10500000002A0CD0311C206AFFF76EF8059B226A3B
:10501000F618D2182262626AED1AD31A6362019BF3
:10502000002B05D1636A002B02D0A379002B0AD193
:10503000201C002100F0B3F9002804D00123002532
:105040002373656206E0059BFF18002D02D00299CC
:105050000029BBD1002D20D0009A002A1DD1E16982
:10506000A369E56175190191A6612562201C05A956
:10507000009300F094F9002804D001232373002347
:10508000636201E0059BFF18019B009AE361A26146
:10509000201C00F07AF900236362A379022B01D06F
:1050A00000236362381C0399FBF7D6F907B0F0BD03
:1050B00038B5041C231C081C0121151CFFF73FFFF9
:1050C000451B6B425D416D422C40201C38BDF0B544
:1050D00089B0059101920F99109A029300230B60F9
:1050E000061C1360012811D098420FDB059A059B1E
:1050F000013A1A43D20F09D1242807DC0298111C67
:10510000019B98470127041C3D1C02E00024271C3A
:1051100040250496002E05D001204042311CFBF7AB
:105120009BF90490059A0021D217039106910792EA
:1051300093E0681E0F2800D98FE0FBF783F9082E53
:105140008E3F8E8E8E518E8E8E8E8E8E8E51201C28
:10515000FFF796FE021E09D000210A1C0298019B4F
:1051600098470699041C0131069176E02B2C07D153
:105170000298111C019B98470137041C02256CE022
:1051800002252D2C69D1111C019B029898470F997B
:1051900001230137041C0B605FE0102E02D00825AC
:1051A000002E5AD10825302C57D1002102980A1C14
:1051B000019B98470137041C04254EE0782C01D050
:1051C000582C09D1002102980A1C019B98470137ED
:1051D000041C0825102640E01025002E3AD03CE0A3
:1051E000002E00D10A260499002905D10120404251
:1051F000311CFBF731F90490201C3038092808D9FC
:10520000201CFFF72DFE002805D0201CFFF748FECC
:105210003738B04203DB102D1ED120251DE0039A44
:10522000049901238A4201D8109A1368039AC4B2E0
:105230007243D1438C4200D90123109982180B602C
:105240000021039202980A1C019B98470137041C15
:10525000102502E0082600E04025611C0BD0079ACB
:105260000599FB0FB9425341DBB2002B03D06023F9
:105270001D4200D15DE734231D4003D10E9A0395F2
:10528000156004E0069B013F0E99FF180F6002981D
:10529000211C0122019B9847039809B0F0BD30B54D
:1052A000C9B2031C1F2A35D9444203232340041CDE
:1052B000002B07D0D21A1D1C013D21700134002D96
:1052C000FAD1C418002905D00D06080428430B02A2
:1052D000014319435009231C00280ED0051C013D31
:1052E000196059609960D960196159619961D961F2
:1052F0002033002DF3D14301E318D006400F07D02F
:10530000041C1D1C013C02C5002CFBD180001B1895
:1053100003200240002A03D01970013A0133F9E753
:1053200030BD10B58018C9B2831A04E0013A9C5C04
:1053300001388C4202D0002AF8D1101C10BD10B5E3
:10534000C9B2821804E00478431C8C4203D0181CB4
:105350009042F8D1002010BD00B5C9B202E08B42E6
:1053600008D0101C0378421C002BF8D14B42594145
:105370004942084000BD00B5031C1A1C0133591EE8
:1053800009780029F9D1101A00BD8369826A036285
:105390004369C1691A408A1A42620363704738B58B
:1053A0000D1C036A8169041C5B1A0FD0221C436226
:1053B00024320068E36B9847002D01D0636A2B60AC
:1053C000002807D16269636AD3186361201CFFF764
:1053D000DCFF002038BD000038B50B4C0B4D01E060
:1053E00008CC9847AC42FBD1094C0A4D01E008CCEF
:1053F0009847AC42FBD1084C084D01E008CC9847D7
:10540000AC42FBD138BDC046FC5C0000FC5C000037
:10541000FC5C0000FC5C0000FC5C0000FC5C00002C
:1054200038B5084C084D01E008CC9847AC42FBD198
:10543000064C074D02E0043C23689847AC42FAD181
:1054400038BDC046FC5C0000FC5C0000FC5C000059
:10545000FC5C000030B5002A20D088421ED0032416
:105460000123214207D1204205D1944203D220C911
:10547000043A20C010E0194209D1184207D19342E2
:1054800005D20D88023A05800231023004E00D7821
:10549000013A057001310130002AE2D130BD00002F
:1054A00010B5094C002C0ED004E06068A268FFF72C
:1054B000D1FF0C3421680029F7D16368002BF4D1A7
:1054C000A368002BF1D110BDD85D000010B5054BCD
:1054D0001C6803E0A068636898472468002CF9D131
:1054E00010BDC046A8F1FF1F054B181C002805D0B1
:1054F000854681B00020C043009001B0F746704758
:1055000000300020F7467047F0C041464A465346F7
:105510000EC05946016071464160694681600020B5
:10552000704770471030F0C8A046A946B246BB4647
:1055300030C8A646AD462838F0C8081C00D1012066
:105540007047704750726F6A656374206465736357
:1055500072697074696F6E3A00000000493243202E
:105560006578616D706C65206F6620636F6D6D7519
:105570006E69636174696F6E2077697468206578FD
:105580007465726E616C20616363656C65726F6DCA
:10559000657465722E00000050574D2069732075A8
:1055A00073656420666F722064696D6D696E672033
:1055B00074686520524742204C454420696E20643F
:1055C0006570656E64656E6365206F6E2074696CCE
:1055D00074206F662074686520626F6172642E00AB
:1055E00044656661756C74205461736B2049442076
:1055F0003D20256C640A0000496E697420496E657F
:10560000727469616C2073656E736F722028493201
:10561000432061646472203D203078314429205059
:1056200041535345442E00004641494C45442E0009
:1056300054696C7420796F75722046726565646F69
:105640006D20426F61726420746F206368616E67C1
:10565000652074686520524742204C454420636FA2
:105660006C6F72732E000000007F7F005245414432
:10567000205449204144533130313520636F6E74DA
:10568000726F6C2072656769737465722050415344
:10569000532C204D53423D3078253032582C204C2D
:1056A00053423D3078253032582E0A00524541444D
:1056B000205449204144533130313520636F6E749A
:1056C000726F6C2072656769737465722046414918
:1056D0004C45442E0000000057524954452054497F
:1056E000204144533130313520636F6E74726F6CDA
:1056F00020726567697374657220504153532C2082
:105700004D53423D3078253032582C204C53423D89
:105710003078253032582E0A000000005752495484
:1057200045205449204144533130313520636F6E58
:1057300074726F6C2072656769737465722046417C
:10574000494C45442E000000544920414453313017
:1057500031352073656C65637420414E25642046A5
:1057600041494C45442E0A005245414420544920A9
:105770004144533130313520414E256420636F6EF2
:105780007665727420726567697374657220504122
:1057900053532C204D53423D3078253032582C2025
:1057A0004C53423D3078253032582C204144433D03
:1057B00025640A0052454144205449204144533154
:1057C00030313520636F6E7665727420726567695B
:1057D00073746572204641494C45442E0000000018
:1057E0005F6D71785F69646C655F7461736B0000F5
:1057F000342E302E30000000467265657363616C94
:10580000652F467265657363616C65204D51580064
:10581000433A2F467265657363616C652F43572069
:105820004D4355207631302E332F4D43552F507236
:105830006F636573736F724578706572742F6C69EE
:10584000622F6D71786C6974652F56312E302E3150
:105850002F00000047454E5F5245564953494F4E71
:10586000000000005053505F5245564953494F4E77
:105870000000000028632920323031312046726553
:10588000657363616C652053656D69636F6E6475E4
:1058900063746F722E20416C6C2072696768747338
:1058A0002072657365727665642E00004D6172200A
:1058B000313820323031332061742031313A34387C
:1058C0003A33340056312E302E3100007461736B40
:1058D0005F64656661756C74000000007461736BD1
:1058E0005F6461630000000000110000FA10000016
:1058F000F4100000EE100000E8100000E2100000BC
:10590000DC100000D6100000D0100000CA1000000B
:10591000C4100000BE100000B8100000B21000005B
:10592000AC100000A610000000000004F8570000B2
:1059300010580000010000010100000000000000FC
:1059400000010000000000000100000008F2FF1F3D
:1059500048F4FF1F010000001001000048F4FF1F81
:1059600020010000A4FFFF1F6C590000010000008F
:10597000310A0000800400000B000000CC58000039
:10598000000000000000000002000000B10C000058
:10599000800800000A000000DC5800000100000040
:1059A00000000000000000000000000000000000F7
:1059B00000000000000000000000000000000000E7
:1059C0000000808080808080808080909090909087
:1059D00080808080808080808080808080808080C7
:1059E000808018040404040404040404040404046B
:1059F000040402020202020202020202040404047B
:105A00000404044343434343434141414141414131
:105A1000414141414141414141414141410404042D
:105A200004040423232323232321212121212121B1
:105A300021212121212121212121212121040404AD
:105A400004800000000000000000000000000000D2
:105A50000000000000000000000000000000000046
:105A60000000000000000000000000000000000036
:105A70000000000000000000000000000000000026
:105A80000000000000000000000000000000000016
:105A90000000000000000000000000000000000006
:105AA00000000000000000000000000000000000F6
:105AB00000000000000000000000000000000000E6
:105AC000000000008748006826E08648006823E060
:105AD00084480068018B002905D1416AC269D369F5
:105AE000994200D000E0704772B6FFB44046494684
:105AF00052465B460FB4F0B4EFF30981EFF3008533
:105B0000794E3543624673467446084630303CC091
:105B100074480068C3695961416A0A688A4207D1BA
:105B200089680900F9D162B630BF72B6016AF4E73C
:105B30004162C261938C43835069014620318C4697
:105B4000FEC8BA46B146A84627461E4615460C462C
:105B500002C88B46EFF31481002904D1614681F31A
:105B6000098862B600BD6146203181F30988103092
:105B70000EC88C46964602C8203881F3008808B4C7
:105B80000FC862B600BDFEE772B6FFB44046494694
:105B900052465B460FB4F0B4EFF30981EFF3008592
:105BA000514E3543624673467446084630303CC019
:105BB0004C480068C36959619A6801210A439A6098
:105BC0005A68196811604A60A6E772B600B5454B7D
:105BD0001B68198B01311983444801B4EFF3058127
:105BE000586B03B4EFF30880586308461A6B002A19
:105BF00000D136E0904234D8DA6A811A31DB0C22C7
:105C000051439A6B11440A68886862B608B4904799
:105C100008BC72B603BC586301BC198B01391983E7
:105C200000291CD1DA69906A3149084217D1596AB2
:105C30000968914213D0EFF30981183101C901308D
:105C4000043901C13C39F0C142464B4654465D46D9
:105C50003CC1203923480068C36959615CE762B6DA
:105C600000BD9A6AD1E772B6F7B41E4B1B685A6B37
:105C7000103211688E4604321E480121884390611B
:105C8000FFCAB84680BC043F7FC71C3F3846474622
:105C900080C00438F6BC80F3088862B6704706B549
:105CA0000178154A114203D111430170404000E0D0
:105CB000802006BDEFF309807047EFF3088070473E
:105CC00080F308887047EFF30380704762B670472F
:105CD00072B670477046704778467047EFF314808D
:105CE0007047C04600F0FF1F0000000100000000E8
:0C5CF00000100000105C000080000000AC
:105CFC00FFFFFFFFC400002058F5FF1F000000004D
:105D0C000000000000010102000000000000000083
:105D1C0000000000000000002C06002040000000E5
:105D2C002C06002000000000000000000000000015
:105D3C000000000000000000892800001529000068
:105D4C009129000001000000000201020000000087
:105D5C00000000000000000000000000EC05002026
:105D6C0040000000EC0500200000000000000000D6
:105D7C000000000000000000000000008928000066
:105D8C001529000091290000020000000002000209
:105D9C0000000000000000000000000000000000F7
:105DAC006C060020400000006C0600200000000083
:105DBC0000000000000000000000000000000000D7
:0C5DCC0089280000152900009129000022
:105DD800FC5C000000F0FF1FDC0000000000000079
:085DE8000000000000000000B3
:0400000300000411E4
:00000001FF
